:100000000C948A040C94B2040C94B2040C94B204C0
:100010000C94B2040C94B2040C94B2040C94B20488
:100020000C94B2040C94B2040C9449130C94D013A5
:100030000C94B2040C94B2040C94B2040C94B20468
:100040000C94B2040C94B2040C94B2040C94B20458
:100050000C94B2040C94B2040C94B2040C94150EDB
:100060000C94B2040C94B2040C94B2040C94B20438
:100070000C94B2040C94B2040C94B2040C94B20428
:100080000C94C8100C94B2040C94B2040C94B204F6
:100090000C94B2040C94B2040C94B2040C94B20408
:1000A0000C94B2040C94B2040C94B204000000004E
:1000B000003E5B4F5B3E3E6B4F6B3E1C3E7C3E1CEE
:1000C000183C7E3C181C577D571C1C5E7F5E1C0034
:1000D000183C1800FFE7C3E7FF0018241800FFE7EB
:1000E000DBE7FF30483A060E2629792926407F05AE
:1000F0000507407F05253F5A3CE73C5A7F3E1C1CC4
:1001000008081C1C3E7F14227F22145F5F005F5F83
:1001100006097F017F006689956A6060606060946F
:10012000A2FFA29408047E040810207E2010080874
:100130002A1C08081C2A08081E101010100C1E0C7F
:100140001E0C30383E3830060E3E0E060000000011
:100150000000005F00000007000700147F147F14F8
:10016000242A7F2A1223130864623649562050003D
:1001700008070300001C2241000041221C002A1C29
:100180007F1C2A08083E0808008070300008080814
:100190000808000060600020100804023E51494534
:1001A0003E00427F400072494949462141494D3352
:1001B0001814127F1027454545393C4A49493141B9
:1001C000211109073649494936464949291E000087
:1001D00014000000403400000008142241141414DC
:1001E0001414004122140802015909063E415D59C8
:1001F0004E7C1211127C7F494949363E41414122D1
:100200007F4141413E7F494949417F090909013EFA
:10021000414151737F0808087F00417F4100204021
:10022000413F017F081422417F404040407F021C33
:10023000027F7F0408107F3E4141413E7F0909094A
:10024000063E4151215E7F09192946264949493216
:1002500003017F01033F4040403F1F2040201F3FDC
:100260004038403F63140814630304780403615961
:10027000494D43007F4141410204081020004141A3
:10028000417F04020102044040404040000307084F
:100290000020545478407F2844443838444444284B
:1002A000384444287F385454541800087E090218F2
:1002B000A4A49C787F0804047800447D400020407A
:1002C000403D007F1028440000417F40007C0478BE
:1002D00004787C080404783844444438FC18242406
:1002E0001818242418FC7C08040408485454542486
:1002F00004043F44243C4040207C1C2040201C3C03
:100300004030403C44281028444C9090907C4464F9
:10031000544C44000836410000007700000041368C
:10032000080002010204023C2623263C1EA1A16112
:10033000123A4040207A3854545559215555794144
:100340002154547841215554784020545579400C1B
:100350001E527212395555555939545454593955FC
:100360005454580000457C410002457D420001453F
:100370007C40F0292429F0F0282528F07C545545AC
:10038000002054547C547C0A097F4932494949323F
:100390003248484832324A4848303A4141217A3A54
:1003A00042402078009DA0A07D39444444393D401E
:1003B00040403D3C24FF2424487E4943662B2FFCCB
:1003C0002F2BFF0929F620C0887E09032054547979
:1003D000410000447D413048484A32384040227A4A
:1003E000007A0A0A727D0D19317D2629292F2826C7
:1003F0002929292630484D402038080808080808CF
:100400000808382F10C8ACBA2F102834FA00007B27
:10041000000008142A142222142A1408AA005500E5
:10042000AAAA55AA55AA000000FF00101010FF004C
:10043000141414FF001010FF00FF1010F010F0143F
:100440001414FC001414F700FF0000FF00FF141444
:10045000F404FC141417101F10101F101F14141490
:100460001F00101010F0000000001F101010101FCF
:1004700010101010F010000000FF101010101010DD
:10048000101010FF10000000FF140000FF00FF001C
:10049000001F10170000FC04F41414171017141494
:1004A000F404F40000FF00F714141414141414F7E7
:1004B00000F7141414171410101F101F141414F440
:1004C000141010F010F000001F101F0000001F1487
:1004D000000000FC140000F010F01010FF10FF14DA
:1004E0001414FF141010101F00000000F010FFFF84
:1004F000FFFFFFF0F0F0F0F0FFFFFF000000000052
:10050000FFFF0F0F0F0F0F38444438447C2A2A3E58
:10051000147E02020606027E027E02635549416392
:100520003844443C04407E201E2006027E0202998C
:10053000A5E7A5991C2A492A1C4C7201724C304A25
:100540004D4D303048784830BC625A463D3E4949AE
:1005500049007E0101017E2A2A2A2A2A44445F4456
:100560004440514A444040444A51400000FF010386
:10057000E080FF000008086B6B0836123624360650
:100580000F090F060000181800000010100030407E
:10059000FF0101001F01011E00191D1712003C3C44
:1005A0003C3C00000000000F0180961180FFB10369
:1005B000012C2DB203012C2DB306012C2D012C2D65
:1005C000B40107C003A20284C101C5C2020A00C36C
:1005D000028A2AC4028AEEC5010E20003601C83AFA
:1005E0000105022A04000200812B04000100A00280
:1005F0002A040000007F2B040000009F04E010028A
:100600001C07123732292D29252B3900010310E14F
:1006100010031D07062E2C292D2E2E373F00000219
:100620001013800A2980641301803211806426012E
:1006300004B1020B14C0020800C10105C50241301B
:10064000C701C1EC011B3A8155642A040000007FF8
:100650002B040000009F3601C8B70100F20100E042
:100660008F282422312B0E53A5421618121A140378
:1006700032E18F171B1D0E14112CA53D09272D25C6
:100680002B3C3213800A2980FF120180321180FF37
:100690003A81050AB1830006030A360108B602153D
:1006A00002B40100C08202700AC10105C202010247
:1006B000C5823C380AFC021115E0100916092021F8
:1006C0001B131917151E2B0405020EE1900B1408BD
:1006D0001E221D181E1B1A242B0606020F0A2A04AE
:1006E000000200812B040002008113800A2980FF90
:1006F00000000000240027002A002D003000000028
:100700000000250028002B002E0031000000000012
:100710002300260029002C002F00040404040403F5
:100720000405020202020403020202020606060691
:10073000060604040202020404080201104080407C
:1007400010204080408008020401804020100201F7
:100750001080102040400000000200080E0000033E
:100760000401000B00000000000000000000000079
:1007700000000000070605040100080A0B0C0D0923
:100780000403090441726475696E6F204573706CCF
:100790006F72610041726475696E6F204C4C43004A
:1007A000120100020000004041233C8000010102D0
:1007B0000001120100020200004041233C800001C0
:1007C0000102000100C18081C1080B000202020188
:1007D00000090400000102020000052400100105C8
:1007E00024010101042402060524060001070581F5
:1007F0000310004009040100020A0000000705027E
:10080000024000000705830240000005010902A123
:10081000010901A100850105091901290315002518
:100820000195037501810295017505810305010993
:1008300030093109381581257F750895038106C077
:10084000C005010906A1018502050719E029E71580
:1008500000250175019508810295017508810395B0
:10086000067508150025650507190029658100C072
:100870000904020001030000000921010100012216
:10088000650007058403400001000000000000002F
:10089000002A2B28000000000000000000000000DB
:1008A0000000000000000000002C9EB4A0A1A2A443
:1008B00034A6A7A5AE362D3738271E1F20212223A8
:1008C000242526B333B62EB7B89F848586878889BA
:1008D0008A8B8C8D8E8F9091929394959697989900
:1008E0009A9B9C9D2F3130A3AD350405060708095E
:1008F0000A0B0C0D0E0F10111213141516171819E0
:100900001A1B1C1DAFB1B0B50000A5054506851228
:1009100054185A1911241FBECFEFDAE0DEBFCDBF45
:1009200011E0A0E0B1E0E2E6F5E302C005900D922F
:10093000A039B107D9F712E0A0E9B1E001C01D92DA
:10094000A034B107E1F719E0C4E1D9E004C022976F
:10095000FE010E94AB1ACA30D107C9F70E944310AA
:100960000C94AF1A0C940000FB01DC0102C0019052
:100970000D9241505040D8F70895FB01DC010190E1
:100980000D920020E1F70895FB01DC014150504039
:1009900048F001900D920020C9F701C01D9241500E
:1009A0005040E0F70895FB019F01E8944230C4F005
:1009B0004532B4F44A3029F497FB1EF490958195A2
:1009C0009F4F642F77270E94951A805D8A330CF021
:1009D000895D8193CB010097A1F716F45DE25193F5
:1009E0001082C9010C94F404DC01FC01672F7191A1
:1009F0007723E1F7329704C07C916D937083629105
:100A0000AE17BF07C8F30895CF92DF92EF92FF921F
:100A10000F931F93DF93CF9300D000D000D0CDB7BA
:100A2000DEB783E991E060E00E94EC05BC016E0155
:100A30000894C11CD11CC6014AE00E94CD1580E972
:100A4000E82E81E0F82EC601B70143E050E020E037
:100A500030E00E941E1506E911E0C8016FEF4FEF6C
:100A60002FEF0E947309C801B70140E050E02EE16A
:100A700030E00E94890968EE73E080E090E00E9417
:100A8000B30EC80160E040E020E00E947309C80195
:100A9000B70140E050E02EE130E00E948909C60134
:100AA0000E94FD1526960FB6F894DEBF0FBECDBF8F
:100AB000CF91DF911F910F91FF90EF90DF90CF903A
:100AC00008950F931F9306E911E0C8010E942206C2
:100AD000C80160E040E020E00E946209C80168ECC3
:100AE00044E124EB0E947309C80162E00E943A09C4
:100AF000C80160E071E040E050E020E030E00E949A
:100B00008909C80165E00E943A091F910F91089573
:100B100082E161E00E94530F83E161E00E94530F84
:100B200084E161E00E94530F85E161E00E94530F70
:100B300085E061E00E94530F8AE061E00E94530F5C
:100B400089E061E00E94530F089583E991E00E94DB
:100B500088050895FF920F931F93CF93DF93F62E8E
:100B6000062F10E0617082E10E94E00F1695079554
:100B7000602F617083E10E94E00F16950795602F4A
:100B8000617084E10E94E00F16950795017085E180
:100B9000602F0E94E00F8AE0F81699F486E162E087
:100BA0000E94530F86E10E941310019719F0C0E0D4
:100BB000D0E002C0CFEFD3E086E160E00E94E00F1A
:100BC00004C086E10E941B0FEC01CE01DF91CF91A2
:100BD0001F910F91FF9008951F93CF93DF93EC0126
:100BE000162FCE0166E00E94AA05BC0180E090E0CD
:100BF000112381F424EF31E040E050E00E94631AB9
:100C00004AE095958795779567954A95D1F7625310
:100C1000704013C0113011F010E0E3CF22EC31E04E
:100C200040E050E00E94631A39E0959587957795EA
:100C300067953A95D1F76A537040CB01DF91CF9118
:100C40001F9108950F931F93182F092F0E94B90D1C
:100C5000812F902F61E00E94720C1F910F910895D7
:100C60000F931F938C010E94BE0D86E291E0F80164
:100C70009183808380EA90E09187808780E890E08C
:100C8000938782871F910F91089586E991E067E02D
:100C900040E021E00E9430060895FC011382128298
:100CA00080E491E0918380837583648357834683D6
:100CB0007187608753874287158A15861486178641
:100CC000168621E0248B8FEF9FEF938B828B918B85
:100CD000808B268B08952F923F924F925F926F9256
:100CE0007F928F929F92AF92BF92CF92DF92EF92BC
:100CF000FF920F931F93DF93CF9300D000D0CDB717
:100D0000DEB73C017C836B836A015901FA82E98278
:100D1000222433249801241B350B37FF03C0309560
:100D200021953F4FC5014B815C81841B950B97FF3B
:100D300003C0909581959F4F821793075CF481E0E3
:100D4000282E312CC601CB80DC809C838B83C8018C
:100D500085015C018B819C81A816B90644F4C5010C
:100D6000AB80BC809C838B83C80186016C0125010C
:100D7000AB81BC814A1A5B0A7801EC18FD08F7FECA
:100D800004C0F094E194F108F394C016D10624F065
:100D900088248A94982C03C0B1E08B2E912CC20138
:100DA00062E070E00E94821A8B0125C0D301ED91B0
:100DB000FC912114310441F00480F581E02DC30140
:100DC000B6014B815C8107C00480F581E02DC30131
:100DD0006B817C81A60129813A8109950E191F0931
:100DE00017FF04C0C80CD91C040D151DEB81FC8134
:100DF0003196FC83EB834B815C81A416B506B4F677
:100E00000F900F900F900F90CF91DF911F910F9146
:100E1000FF90EF90DF90CF90BF90AF909F908F901A
:100E20007F906F905F904F903F902F9008954F92DA
:100E30005F926F927F928F929F92AF92BF92CF926A
:100E4000DF92EF92FF920F931F936C015B014A01B7
:100E500039012801DC01ED91FC910284F385E02D3C
:100E600087010995D601ED91FC91A40141505040B4
:100E7000440D551D0284F385E02DC601B501930193
:100E80000995D601ED91FC910084F185E02DC60114
:100E9000B501A40192010995D601ED91FC91089448
:100EA000A108B108A60CB71C0084F185E02DC6018D
:100EB000B501A401920109951F910F91FF90EF9048
:100EC000DF90CF90BF90AF909F908F907F906F906A
:100ED0005F904F900895CF92DF92EF92FF920F9321
:100EE0001F93DC016B017801ED91FC918A010150A7
:100EF0001040020F131F0680F781E02D960109951F
:100F00001F910F91FF90EF90DF90CF900895CF92B7
:100F1000DF92EF92FF920F931F93DC016A01C901E8
:100F20007801ED91FC9111979B0121503040280FE1
:100F3000391F0680F781E02DCD01860109951F91AB
:100F40000F91FF90EF90DF90CF9008956F927F9276
:100F50008F929F92AF92BF92CF92DF92EF92FF92C9
:100F60000F931F93CF93DF935C013A01690148010E
:100F7000EB01C60ED71E0DC0D501ED91FC9100848A
:100F8000F185E02DC501BE01A301940187010995FA
:100F90002196CC15DD0584F3DF91CF911F910F9140
:100FA000FF90EF90DF90CF90BF90AF909F908F9089
:100FB0007F906F900895EF92FF920F931F93FC0123
:100FC0007B01A081B18120853185028513851E9624
:100FD0000D90BC91A02D60E070E040E050E0FD017C
:100FE00009951F910F91FF90EF9008952F923F92D6
:100FF0004F925F926F927F928F929F92AF92BF9229
:10100000CF92DF92EF92FF920F931F93DF93CF93D4
:10101000CDB7DEB72F970FB6F894DEBF0FBECDBFAA
:101020005C015E834D8318870F83FA86E986CB8641
:10103000DC0118968D919C911997681779070CF02F
:10104000A4C01A968D919C911B97481759070CF0D4
:101050009CC0EC2DF0E0FF87EE87CF01880F991F31
:101060008E0F9F1F880F991F860F971F181619063E
:101070000CF08BC0CF01F3E0880F991FFA95E1F7D0
:10108000840F951F181619060CF07FC085E0289F65
:10109000A00111245A8349832B011B011C825C810E
:1010A000553011F480E005C0E981FA81E455FF4F25
:1010B00084912C863D866D807E8043011B82C82EE4
:1010C000DD2480FF1CC0D501ED91FC91BB85B130C2
:1010D00049F40480F581E02DC501B201A3012F81FF
:1010E000388522C00684F785E02DC5016C857D8595
:1010F000A4012E853F858901EF80F88423C0E9850E
:10110000FA852F813885E217F307E9F0D501ED91D3
:10111000FC91BB85B13051F40480F581E02DC5010F
:10112000B201A30129853A8509950DC00684F7858A
:10113000E02DC5016C857D85A4012E853F85890143
:10114000E984FA840995EB81EF5FEB832E853F8577
:10115000820E931E0894611C711CE83021F0D59416
:10116000C7948C2DACCF3C813F5F3C834E855F851F
:10117000240E351E0894411C511C89819A810196C8
:101180009A838983363009F08ACF2F960FB6F89468
:10119000DEBF0FBECDBFCF91DF911F910F91FF90AA
:1011A000EF90DF90CF90BF90AF909F908F907F9007
:1011B0006F905F904F903F902F900895CF92EF9255
:1011C000FF920F931F93CF93DF93EC01262F6A308A
:1011D00061F42C8930E003E0220F331F0A95E1F718
:1011E0008E859F85820F931F37C06D30C9F16C8546
:1011F0007D854E855F8508891989EA88FB88CC88BA
:101200000E94F6072C8986E0289FB00111248C8566
:101210009D85680F791F7D876C878E89882301F1F2
:10122000422F50E08AEF9FEF9C01429FC001439FF5
:10123000900D529F900D112428853985820F931FA0
:10124000861797076CF413E0440F551F1A95E1F7C2
:101250008E859F85840F951F9F878E871D861C8690
:1012600081E090E0DF91CF911F910F91FF90EF907F
:10127000CF900895FC01662309F461E0648B089522
:10128000089550E04C7F507033E0440F551F3A955D
:10129000E1F730E093E0359527959A95E1F7422BF9
:1012A000532B70E0687F7070762F6627462B572B84
:1012B000CA010895DC01ED91FC910088F189E02DCF
:1012C000099508950F931F938C01DC01ED91FC911A
:1012D0000488F589E02D0995BC01C8010E945A09CE
:1012E0001F910F9108950F931F938C01DC01ED91D5
:1012F000FC910488F589E02D099521E0F801218F02
:10130000908F878B918B808B938B828B1F910F910A
:101310000895FC01818D882371F0168A8789908D4C
:10132000918B808B938B828B558744873787268759
:10133000CF010E949D100895DC015E968C915E970E
:10134000882331F06EBD0DB407FEFDCF8EB5089534
:1013500030E840E050E070E0832F90E08623972350
:101360005F96ED91FC9190979C962C919C97892B80
:1013700021F08081822B808304C0808120952823E6
:1013800020839196ED91FC91929780819D969C91FE
:101390009D97892B80839196ED91FC9192979081F6
:1013A0009D968C919D9780958923808336954F5F7C
:1013B0005F4F4830510581F608950F931F938C01BC
:1013C000DC019596ED91FC91969790819F968C917A
:1013D0009F978095892380839396ED91FC919497B4
:1013E00090819E968C91809589238083C8010E946C
:1013F0009C09D8019396ED91FC91949780819E96DB
:101400009C91892B80831F910F9108950F931F93B7
:101410008C01DC019596ED91FC91969780819F96C9
:101420009C919F97892B80839396ED91FC91949743
:1014300090819E968C91809589238083C8010E941B
:101440009C09D8019396ED91FC91949780819E968A
:101450009C91892B80831F910F910895CF92DF92E9
:10146000EF92FF920F931F937C01162FC42ED22E62
:101470006AE20E94DD09C70160E00E94060AF701E6
:1014800060A9610FC7010E94060AC70160E00E94BF
:10149000060AF70160A96D0DC7010E94060AC7017F
:1014A0006BE20E94DD09C70160E00E94060AF701B5
:1014B00061A96C0DC7010E94060AC70160E00E9485
:1014C000060AF70161A9600FC7010E94060AC70159
:1014D0006CE20E94DD091F910F91FF90EF90DF9069
:1014E000CF900895EF92FF920F93CF93DF93EC018B
:1014F000790177FD46C088859985681779070CF0D2
:1015000040C057FD3EC08A859B8548175907CCF5DA
:10151000262F2F5F042F0F5FCE010E942E0AEDA110
:10152000FEA180819FA5892B8083EBA1FCA19081E6
:101530008EA58095892380838D8D8230A1F49701BB
:10154000232F3327269526952695C701982F882780
:10155000990F990F990F40EE57E0E422F522E82AFF
:10156000F92AE22AF32ACE016F2D0E949C09CE01AE
:101570006E2D0E949C09EBA1FCA180819EA5892B68
:101580008083DF91CF910F91FF90EF900895CF92DC
:10159000DF92EF92FF920F931F93CF93DF937C0123
:1015A000FB016901E801DC0118968D919C91199766
:1015B000681779070CF060C01A962D913C911B9723
:1015C000421753070CF058C0C601840F951F281707
:1015D00039071CF46901C41AD50A042F01500C0DF7
:1015E000C7016E2F2E2F0E942E0AF701858D8230A3
:1015F00091F49E01232F3327269526952695CE011B
:10160000982F8827990F990F990FC07ED770C82BF4
:10161000D92BC22BD32B8E01D7019596ED91FC913E
:10162000969780819F969C919F97892B8083939614
:10163000ED91FC91949790819E968C918095892351
:10164000808308C0C701612F0E949C09C701602FD9
:101650000E949C090894C108D108BFEFCB16BFEFC8
:10166000DB0681F7D7019396ED91FC9194978081E9
:101670009E969C91892B8083DF91CF911F910F9132
:10168000FF90EF90DF90CF900895CF92DF92EF928E
:10169000FF920F931F93CF93DF937C01FA016901AF
:1016A000E801DC0118962D913C9119976217730798
:1016B0000CF060C01A968D919C911B9748175907A2
:1016C0000CF058C0C601860F971F281739071CF465
:1016D0006901C61AD70A262F21502C0DC7014E2F9B
:1016E0000E2F0E942E0AF701858D823091F49E0103
:1016F000232F3327269526952695CE01982F8827C8
:10170000990F990F990FC07ED770C82BD92BC22B78
:10171000D32B8E01D7019596ED91FC919697808100
:101720009F969C919F97892B80839396ED91FC9136
:10173000949790819E968C9180958923808308C090
:10174000C701612F0E949C09C701602F0E949C095C
:101750000894C108D108BFEFCB16BFEFDB0681F7B5
:10176000D7019396ED91FC91949780819E969C91E0
:10177000892B8083DF91CF911F910F91FF90EF9084
:10178000DF90CF900895EF92FF920F931F93FC018B
:101790007B01A081B18120853185028513851E964C
:1017A0000D90BC91A02D60E070E040E050E0FD01A4
:1017B00009951F910F91FF90EF9008958F929F923E
:1017C000AF92BF92CF92DF92EF92FF920F931F934F
:1017D000CF93DF936C0149015801E701DC011896B2
:1017E0002D913C911997621773070CF06EC01A96F1
:1017F000ED91FC911B974E175F070CF066C0C4017A
:10180000860F971F281739071CF44901861A970A73
:10181000C501840F951FE817F9071CF45F01A41A8E
:10182000B50AF601858D823091F49E01232F33276E
:10183000269526952695CE01982F8827990F990FE2
:10184000990FC07ED770C82BD92BC22BD32B262F34
:101850002150280D042F01500A0DC6010E942E0AA6
:101860007E01D6019596ED91FC91969780819F9689
:101870009C919F97892B80839396ED91FC919497EF
:1018800090819E968C9180958923808385010EC0DE
:10189000C6016F2D0E949C09C6016E2D0E949C09F5
:1018A00021971C161D06A4F30150104010161106B6
:1018B00014F4E401F6CFD6019396ED91FC91949740
:1018C00080819E969C91892B8083DF91CF911F917F
:1018D0000F91FF90EF90DF90CF90BF90AF909F90CF
:1018E0008F9008951F93CF93DF93EC01162F66E33B
:1018F0000E94DD0913701D8B113051F0113028F05A
:10190000123049F01330F1F411C0CE0168EC05C07B
:10191000CE0168EA0DC0CE0168E00E94060A80E8A8
:1019200090E09987888780EA90E00AC0CE0168E657
:101930000E94060A80EA90E09987888780E890E014
:101940009B878A87DF91CF911F910895662311F4B9
:1019500060E201C061E20E94DD090895AF92BF928A
:10196000CF92DF92EF92FF920F931F93CF93DF936B
:101970005C01FB01EB012196D49031C08E010F5F19
:101980001F4FFE016491C5010E94DD097801089492
:10199000E11CF11CF801C4900C2D0F77E701102F0A
:1019A00008C0FE012196E491C5016E2F0E94060A2F
:1019B00011501123B1F7E701C00FD11DC7FE0EC0B2
:1019C000FE018491682F70E06F3F710511F464EFA0
:1019D00071E0219680E090E00E94B30EDA94DD2061
:1019E00069F6DF91CF911F910F91FF90EF90DF90FB
:1019F000CF90BF90AF9008950F931F93CF93DF9335
:101A0000EC018B0119AA18AA88A561E00E94530F66
:101A10008FA161E00E94530FEFA12E2F30E0F9015A
:101A2000E65EF84FE491F0E0EE0FFF1FE250F94F51
:101A3000859194919CA38BA3285C384FF9018491E4
:101A40008EA7E8A52E2F30E0F901E65EF84FE4916D
:101A5000F0E0EE0FFF1FE250F94F859194919EA3A5
:101A60008DA3285C384FF90184918FA78E8D882330
:101A700061F00E94FE0D80E00E94ED0D81E00E9469
:101A8000DF0D80E00E94E80D3DC08BA561E00E9463
:101A9000530F8AA561E00E94530FEBA58E2F90E0B3
:101AA000FC01E65EF84FE491F0E0EE0FFF1FE2501C
:101AB000F94FA591B491BAA3A9A3885C984FFC01F2
:101AC00044914DA7EAA52E2F30E0F901E65EF84FCC
:101AD000E491F0E0EE0FFF1FE250F94F85919491F1
:101AE00098A38F8F285C384FF90184918CA78C9133
:101AF000409548234C93EF8DF8A190818CA580955B
:101B000089238083EBA1FCA190818EA580958923F8
:101B1000808389A5882309F161E00E94530F89A57C
:101B200061E00E94E00F64EF71E080E090E00E94CD
:101B3000B30E89A560E00E94E00F64EF71E080E0E1
:101B400090E00E94B30E89A561E00E94E00F64EF6F
:101B500071E080E090E00E94B30E0115110521F0C4
:101B6000CE01B8010E94AE0CDF91CF911F910F9171
:101B7000089567E276E00E94FC0C0895DF92EF92F0
:101B8000FF920F931F938C01F62EE42ED22E60E865
:101B900070E040EA50E00E944D068AE591E0F801CD
:101BA00091838083F7A2E0A6D1A681E0868F13A659
:101BB00012A61F910F91FF90EF90DF900895882358
:101BC00019F48CB5806202C08CB58F7D8CBD0895F0
:101BD0009CB5937F982B9CBD08952CB5382F3370FE
:101BE0002C7F322B3CBD2DB590E095958795959532
:101BF000879581702E7F822B8DBD089581E161E0F4
:101C00000E94E00F81E161E00E94530F8CB580617A
:101C10008CBD8CB580648CBD8FE061E00E94530F59
:101C200080E161E00E94530F08951F920F920FB65A
:101C30000F9211242F933F938F939F93AF93BF9352
:101C40008091CC019091CD01A091CE01B091CF01B6
:101C50003091D0010196A11DB11D232F2D5F2D378D
:101C600020F02D570196A11DB11D2093D001809326
:101C7000CC019093CD01A093CE01B093CF01809180
:101C8000C8019091C901A091CA01B091CB01019600
:101C9000A11DB11D8093C8019093C901A093CA01F1
:101CA000B093CB01BF91AF919F918F913F912F91B5
:101CB0000F900FBE0F901F901895789484B5826096
:101CC00084BD84B5816084BD85B5826085BD85B5E0
:101CD000816085BDEEE6F0E0808181608083E1E88F
:101CE000F0E01082808182608083808181608083C7
:101CF000E0E8F0E0808181608083E1E9F0E08081CC
:101D000082608083808181608083E0E9F0E080816F
:101D100081608083E1ECF0E0808184608083808159
:101D200082608083808181608083E3ECF0E0808149
:101D300081608083E0ECF0E0808182608083E2EC6F
:101D4000F0E0808181608083EAE7F0E08081846058
:101D500080838081826080838081816080838081B4
:101D6000806880830895EF92FF920F931F93CF9323
:101D7000DF937B018C013FB7F8948091C80190916B
:101D8000C901A091CA01B091CB0126B5A89B05C09D
:101D90002F3F19F00196A11DB11D3FBFBA2FA92FEA
:101DA000982F8827820F911DA11DB11D52E0880F29
:101DB000991FAA1FBB1F5A95D1F7EC0130C00E9492
:101DC00003163FB7F8948091C8019091C901A09182
:101DD000CA01B091CB0126B5A89B05C02F3F19F0D1
:101DE0000196A11DB11D3FBFBA2FA92F982F88279B
:101DF000820F911DA11DB11D32E0880F991FAA1FEE
:101E0000BB1F3A95D1F78C1B9D0B885E9340B8F2AF
:101E10000894E108F10801091109C851DC4FE114E7
:101E2000F1040105110559F6DF91CF911F910F9132
:101E3000FF90EF900895823108F08251E82FF0E092
:101E4000EC58F84FE49120917B008E2F8695869573
:101E5000869590E08170907035E0880F991F3A95D3
:101E6000E1F72F7D282B20937B00E77080911101F3
:101E70008295880F880F807C8E2B80937C008091C8
:101E80007A00806480937A0080917A0086FDFCCF8E
:101E90002091780040917900942F80E030E0282B49
:101EA000392BC9010895CF93DF93482F50E0CA0121
:101EB000885C984FFC013491465E584FFA0184913A
:101EC000882369F190E0880F991FFC01E051F94FD8
:101ED000A591B491FC01E250F94FC591D4916623CC
:101EE00051F42FB7F8948C91932F909589238C936C
:101EF000888189230BC0623061F42FB7F8948C91EC
:101F0000932F909589238C938881832B88832FBF6F
:101F100006C09FB7F8948C91832B8C939FBFDF9161
:101F2000CF910895883071F1893068F4823031F1B1
:101F3000833020F4813009F042C01DC0833089F025
:101F40008430E9F512C08B3059F18C3028F4893097
:101F5000E9F08A30A1F51EC08C3031F18E3079F570
:101F600029C0809180008F7703C0809180008F7D91
:101F700080938000089584B58F7702C084B58F7DEB
:101F800084BD0895809190008F7707C08091900064
:101F90008F7D03C080919000877F8093900008958B
:101FA0008091C0008F7703C08091C0008F7D8093A7
:101FB000C00008958091C200877F8093C200089579
:101FC000FF920F931F93F62E482F50E0CA018A5AB2
:101FD000984FFC012491CA01885C984FFC01149130
:101FE000465E584FFA0104910023C9F0222319F0EC
:101FF000822F0E94920FE02FF0E0EE0FFF1FE250C1
:10200000F94FA591B4919FB7F894FF2021F48C91DA
:102010001095812302C08C91812B8C939FBF1F91BF
:102020000F91FF9008950F931F93482F50E0CA011E
:102030008A5A984FFC012491CA01885C984FFC0190
:102040000491465E584FFA011491112319F420E0CF
:1020500030E015C0222319F0822F0E94920F812FA9
:1020600090E0880F991F845F984FFC01A591B4916F
:102070008C9120E030E0802311F021E030E0C901B4
:102080001F910F910895CF93DF930E945D0E80EE14
:1020900091E00E9486120E946105C0E0D0E00E949B
:1020A00004052097E1F30E940000F9CF0895CF9234
:1020B000DF92EF92FF920F931F93CF93DF937C01F8
:1020C0006B018A01C0E0D0E00FC0D6016D916D01B7
:1020D000D701ED91FC910190F081E02DC7010995A8
:1020E000C80FD91F015010400115110571F7CE011D
:1020F000DF91CF911F910F91FF90EF90DF90CF90E4
:102100000895CF93DF93EC016115710519F420E078
:1021100030E00FC0DB010D900020E9F71197A61BFE
:10212000B70BE881F9810280F381E02DAD010995BB
:102130009C01C901DF91CF9108950E9481100895FB
:102140008230B9F0833028F4882351F08130F9F4DB
:102150000AC08430B9F0843090F08530C1F415C0E5
:1021600010926E00089580916F008D7F80936F00B4
:102170000895809170008D7F809370000895109273
:1021800071000895109272000895109273000895DE
:102190001F920F920FB60F9211242F933F934F93DC
:1021A0005F936F937F938F939F93AF93BF93EF93BF
:1021B000FF938091D1019091D201A091D301B09170
:1021C000D4010097A105B10551F1E091D501F0913D
:1021D000D60180819091D701892780838091D10198
:1021E0009091D201A091D301B091D4011816190693
:1021F0001A061B060CF58091D1019091D201A09195
:10220000D301B091D4010197A109B1098093D10103
:102210009093D201A093D301B093D4010DC083E079
:102220000E94A010E091D501F091D601908180919B
:10223000D701809589238083FF91EF91BF91AF9162
:102240009F918F917F916F915F914F913F912F91CE
:102250000F900FBE0F901F901895282F8091DA01D4
:102260008823C1F057FF1AC015C028989093D90150
:102270008091F1008193E217F307B9F741155105F9
:1022800039F08091F200882319F48BE68093E800FE
:10229000AFBF02C04FEF5FEFCA010895AFB7F89428
:1022A00027702093E9008091F200282F30E0241756
:1022B00035070CF4A901FB019B01240F311D94E6A5
:1022C000DACFDF93CF930F92CDB7DEB7BE016F5F4A
:1022D0007F4F41E050E00E942D11019719F02FEF40
:1022E0003FEF03C08981282F30E0C9010F90CF91C3
:1022F000DF910895FF920F931F93F82E142F052F4F
:102300004091DD015091DE01212F302FC901DC0108
:10231000FB016EEF29C0F7FE02C0949101C09081CD
:102320002091DB013091DC0124173507ACF480915A
:10233000E8008570E1F38091E80082FF03C02FEF91
:102340003FEF17C09093F100C90101968F73907011
:10235000892B11F46093E8002F5F3F4F3093DC012D
:102360002093DB01119731961097A9F6812F902FBA
:102370009C01C9011F910F91FF9008951F93782F21
:10238000E92F162F2091DB013091DC01A091DD01B6
:10239000B091DE012A173B07C4F48091E8008570F4
:1023A000E1F38091E80082FD16C0812F90E0019654
:1023B000880F991F8093F100C90101968F73907067
:1023C000892B19F48EEF8093E8002F5F3F4F3093F5
:1023D000DC012093DB012091DB013091DC012A1725
:1023E0003B07A4F48091E8008570E1F38091E80058
:1023F00082FD12C083E08093F100C90101968F73C2
:102400009070892B19F48EEF8093E8002F5F3F4F77
:102410003093DC012093DB014091DB015091DC0122
:10242000872F9E2FFC0170E06EEF43C094914A17F6
:102430005B07A4F48091E8008570E1F38091E800E7
:1024400082FF02C020E00DC09093F100CA01019606
:102450008F739070892B11F46093E8004F5F5F4F8A
:1024600021E04A175B07A4F48091E8008570E1F34E
:102470008091E80082FF02C080E00DC01092F10060
:10248000CA0101968F739070892B11F46093E80054
:102490004F5F5F4F81E0319690E030E082239323DD
:1024A000892B31F45093DC014093DB0180E009C0BB
:1024B0007F5F711708F4BACF5093DC014093DB01C2
:1024C00081E01F9108959C018091E80082FFFCCF7C
:1024D000F901260F311D03C08091F1008193E217AD
:1024E000F307D1F7289884E68093D9018BEF809386
:1024F000E800CB0108958093E9008091F2008823E1
:1025000019F08AE38093E800089508951092DA01A3
:1025100081E08093D70080EA8093D80082E189BD72
:1025200009B400FEFDCF61E070E080E090E00E9421
:10253000B30E80E98093D8008CE08093E200109283
:10254000E000559A209A08955F926F927F928F9241
:102550009F92AF92BF92CF92DF92EF92FF920F9332
:102560001F93CF93DF93E82E842E752E8091DA018E
:10257000882371F18B01242F352FC901EC01AAEFBB
:10258000FA2EF7E09F2E9E20E0E45E2E8E2D90E046
:1025900070E2A72EB12CA822B9226AE3662E50E47D
:1025A000C52ED12CC822D92258C09FB7F89490923A
:1025B000E9008091E80085FD02C020E004C0809120
:1025C000F200252D281B9FBF222361F4FA9419F4F1
:1025D0002FEF3FEF4DC061E070E080E090E00E949F
:1025E000B30E3BC0822F90E0C817D9070CF42C2FF4
:1025F000C21BD1094FB7F8949092E900A114B1041D
:1026000021F406C01092F10021502223D9F719C0FD
:10261000E7FC03C0F801922F10C0C801322F06C09A
:10262000FC010196E491E093F10031503323C1F7AE
:1026300006C081918093F10091509923D1F7020F48
:10264000111D8091E80085FF05C0209729F4C11471
:10265000D10411F06092E8004FBF209709F0A5CF98
:102660005D9884E68093D801282D372DC9019C01FF
:10267000C901DF91CF911F910F91FF90EF90DF90F3
:10268000CF90BF90AF909F908F907F906F905F9012
:1026900008951F920F920FB60F9211242F933F931C
:1026A0004F935F936F937F938F939F93AF93BF935A
:1026B000EF93FF938091E1001092E100982F83FF48
:1026C0000FC01092E90081E08093EB001092EC00C3
:1026D00082E38093ED001092DA0188E08093F000AD
:1026E00092FF34C083E08093E9008091F200882358
:1026F00019F08AE38093E8008FB7F89492E0909302
:10270000E9009091F2008FBF992321F081EE91E0D2
:102710000E9497188091D801882351F08091D801A8
:1027200081508093D8018091D801882309F45D9A63
:102730008091D901882351F08091D90181508093F3
:10274000D9018091D901882309F4289AFF91EF914A
:10275000BF91AF919F918F917F916F915F914F91B9
:102760003F912F910F900FBE0F901F9018950F93D0
:102770001F93DF93CF930F92CDB7DEB719828E01EF
:102780000F5F1F4FC8010E94BE18C8010E94571A50
:10279000898190E00F90CF91DF911F910F91089563
:1027A0001F920F920FB60F921124EF92FF921F9378
:1027B0002F933F934F935F936F937F938F939F9349
:1027C000AF93BF93EF93FF93DF93CF93CDB7DEB774
:1027D0006197DEBFCDBF1092E9008091E80083FFD2
:1027E00014C1FE0131969E01275F3F4F03C08091C7
:1027F000F1008193E217F307D1F7289884E68093DC
:10280000D90182EF8093E800998197FF05C08091FC
:10281000E80080FFFCCF03C08EEF8093E800292FF3
:1028200030E0C90180769070892B09F0C7C08A8199
:10283000882329F41092F1001092F100DBC081305E
:1028400009F4D8C0833009F4D5C0853049F48091AB
:10285000E80080FFFCCF8B8180688093E300CAC0D2
:10286000863009F081C01C81EF80F8841230C1F5F8
:102870001092E9001092DC011092DB011092DE014F
:102880001092DD010E94B71399E0FE013996DF0135
:10289000292F1D922A95E9F799871A8791E09E873B
:1028A00090E8988B9AEF998B2091DB013091DC01B5
:1028B000275F3F4F3C872B878D871092E90010924E
:1028C000DC011092DB01F092DE01E092DD0180E09C
:1028D000BF0149E050E00E947A110E94B7138AC0FC
:1028E0001092E9001092DC011092DB01F092DE01FF
:1028F000E092DD01123241F482E290E00E944F1A30
:10290000892B09F47BC076C0113079F488E0E81691
:10291000F10419F481E08093DF018091DF018823C5
:1029200009F070C0E0EAF7E018C0133009F066C0A3
:102930008B81882319F4E0E8F7E00FC0823021F49E
:1029400084E897E06FE006C0813009F057C084E961
:1029500097E06BE00E94BE114BC0449180E8BF013C
:1029600050E00E947A1146C0873009F447C0883091
:1029700021F481E08093F1003DC08930D9F52370C6
:102980003070232BD9F5E5ECF7E091E031E026E358
:102990009093E9003093EB0084918093EC002093B6
:1029A000ED009F5F3196953099F78EE78093EA00AE
:1029B0001092EA008B818093DA011CC08F81988588
:1029C0001092E9001092DC011092DB019093DE017D
:1029D0008093DD018D81882329F4CE0101960E9428
:1029E000CA1806C0823051F4CE0101960E94201907
:1029F000882321F08EEF8093E80007C081E2809366
:102A0000EB0003C0E2EBF7E0A8CF6196DEBFCDBFDD
:102A1000CF91DF91FF91EF91BF91AF919F918F91F6
:102A20007F916F915F914F913F912F911F91FF90F7
:102A3000EF900F900FBE0F901F9018950F931F935C
:102A4000CF93DF93FC018B0141155105F9F061151E
:102A50007105E1F0848195812817390718F0FB0191
:102A6000108214C041505040EC01C21BD30B4C17D4
:102A70005D0708F4EA0160817181620F731FC8016C
:102A8000AE010E94C404C00FD11F1882DF91CF9104
:102A90001F910F9108950F931F93CF93DF93EC0134
:102AA0008B016F5F7F4F888199810E943917009752
:102AB00011F480E005C0998388831B830A8381E039
:102AC000DF91CF911F910F910895CF93DF93EC0188
:102AD00088819981892B29F08A819B8186179707A4
:102AE00060F4CE010E944B15882341F08C819D81BA
:102AF000892B19F4E881F981108281E0DF91CF916F
:102B00000895CF93DF93EC0188819981009711F0AC
:102B10000E94A116198218821D821C821B821A82B1
:102B2000DF91CF910895EF92FF920F931F93CF9370
:102B3000DF93EC017B018A01BA010E9465158823AD
:102B400021F4CE010E94811507C01D830C8388816A
:102B50009981B7010E94BD04CE01DF91CF911F91F1
:102B60000F91FF90EF9008950F931F93182F092F47
:102B70006115710559F0DB010D900020E9F71197FF
:102B8000A61BB70BAD010E94931502C00E948115D0
:102B9000812F902F1F910F910895EF92FF920F9325
:102BA0001F93DF93CF93CDB7DEB762970FB6F8943C
:102BB000DEBF0FBECDBF8C01CB01F80111821082A8
:102BC00013821282158214827E010894E11CF11C8A
:102BD000B70150E00E94D304C801B7010E94B415A8
:102BE00062960FB6F894DEBF0FBECDBFCF91DF91D6
:102BF0001F910F91FF90EF900895FC0180819181CA
:102C00000E94A116089508950F931F93CF93DF9309
:102C1000BC018230910510F462E070E0E0913E0268
:102C2000F0913F0240E050E0A0E0B0E024C080819D
:102C3000918186179707D0F08617970771F48281E4
:102C40009381109729F013969C938E9312972CC022
:102C500090933F0280933E0227C04115510519F021
:102C60008417950718F48D01AC01EF01DF01828113
:102C700093819C01F9013097D1F641155105F9F086
:102C8000CA01861B970B8430910580F48A819B8151
:102C90000115110521F0F8019383828304C09093FC
:102CA0003F0280933E02FE01329645C0FE01E80FCE
:102CB000F91F619371930297998388833CC0809137
:102CC0003C0290913D02892B41F480911401909136
:102CD000150190933D0280933C0240911601509162
:102CE00017014115510541F44DB75EB780911201AE
:102CF00090911301481B590B20913C0230913D02E9
:102D000024173507B0F4CA01821B930B8617970767
:102D100080F0AB014E5F5F4F8417950750F0420F74
:102D2000531F50933D0240933C02F901619371930C
:102D300002C0E0E0F0E0CF01DF91CF911F910F9151
:102D40000895CF93DF939C01009709F48FC0EC01A5
:102D500022971B821A8260913E0270913F02611598
:102D6000710581F488819981820F931F20913C0223
:102D700030913D022817390739F5D0933D02C093B1
:102D80003C0274C0DB0140E050E0AC17BD0708F125
:102D9000BB83AA83FE0121913191E20FF31FAE178D
:102DA000BF0779F48D919C911197280F391F2E5FE1
:102DB0003F4F3983288312968D919C9113979B8363
:102DC0008A834115510571F4D0933F02C0933E02AE
:102DD0004DC012968D919C911397AD01009711F003
:102DE000DC01D3CFDA011396DC93CE931297FA016C
:102DF00021913191E20FF31FCE17DF0769F488812B
:102E00009981280F391F2E5F3F4FFA0131832083AC
:102E10008A819B8193838283E0E0F0E0DB0112965C
:102E20008D919C911397009719F0BC01FD01F6CF8D
:102E3000AB014E5F5F4FDB018D919C91840F951F1D
:102E400020913C0230913D022817390779F43097E0
:102E500029F410923F0210923E0202C013821282A5
:102E60004250504050933D0240933C02DF91CF913D
:102E700008956F927F928F929F92AF92BF92CF925E
:102E8000DF92EF92FF920F931F93CF93DF938C010A
:102E9000009729F4CB010E9404168C01BBC08EEF71
:102EA000E82E8FEFF82EE00EF11E4801860E971ED9
:102EB0008E149F0408F4ACC0D7014D915C9111971A
:102EC00046175707B8F04530510508F4A3C0CA01AA
:102ED00004978617970708F49DC042505040461B40
:102EE000570BF401419351936D937C93CF010E9452
:102EF000A11690C05B01A41AB50A3801640E751EB4
:102F0000A0913E02B0913F02E0E0F0E0CC24DD244D
:102F100047C0A615B705A9F5CD91DC911197CE0153
:102F200002968A159B0568F1CE018A199B090296C3
:102F300012962C91129713963C91059758F0F40134
:102F400022833383CA19DB09D183C083D7016D93F0
:102F50007C9309C04E5F5F4F4C0F5D1FF70151839B
:102F60004083C901FC01C114D10431F0D60113968C
:102F7000FC93EE9312974EC0F0933F02E0933E0213
:102F800049C08D919C911197E817F90708F4FC014D
:102F90006D0112968C91129713969C919C01D90108
:102FA000109709F0B6CF80913C0290913D028615B2
:102FB0009705E9F4E617F707D0F420911601309150
:102FC00017012115310541F42DB73EB7809112014B
:102FD00090911301281B390B82169306C8F4909226
:102FE0003D0280923C02F7017183608313C0CB01E4
:102FF0000E940416EC01009759F0D7014D915C91A5
:10300000B8010E94B404C8010E94A1168E0102C03A
:1030100000E010E0C801DF91CF911F910F91FF9068
:10302000EF90DF90CF90BF90AF909F908F907F9068
:103030006F900895FC012485858530E0205C3F4F2A
:10304000281B31092F733070C9010895FC01948544
:103050008585981719F42FEF3FEF06C08585E80F97
:10306000F11D8685282F30E0C9010895DC011C96EA
:103070009C911C971D968C911D97981719F42FEF12
:103080003FEF10C01D968C911D97FD01E80FF11DBB
:1030900096851D968C911D978F5F8F731D968C93CF
:1030A000292F30E0C90108951092E4011092E30144
:1030B00088EE93E0A0E0B0E08093E5019093E60114
:1030C000A093E701B093E80184E791E09093E201D7
:1030D0008093E10108950F931F93DF93CF930F9295
:1030E000CDB7DEB78C01698380911F01882369F019
:1030F00083E0BE016F5F7F4F41E050E00E94A41269
:103100001816190614F49C0107C081E090E0F8013C
:103110009383828320E030E0C9010F90CF91DF914B
:103120001F910F91089583E00E947B1208950F93E1
:103130001F93CF93DF938C01FC010FC082E00E94AC
:1031400061119C01FFEF8F3F9F0799F0F801848583
:10315000E80FF11D2687F801C4878485C82FD0E0C9
:103160002196CF73D070F801858590E0C817D907F4
:1031700029F7DF91CF911F910F910895FC01808174
:103180008E5F808380E869EC77E042E450E00E9443
:103190007A110895FC0181819081913A59F481322C
:1031A00009F04CC080E068E171E047E050E00E9427
:1031B0007A1142C0913209F041C0803239F488E17D
:1031C00091E067E070E00E94631236C0823209F03D
:1031D00035C0828180931F0180911801909119015F
:1031E000A0911A01B0911B01805B9440A040B040B7
:1031F00019F580911F0180FD12C087E797E7909332
:103200000108809300082BE088E190E00FB6F89465
:10321000A895809360000FBE209360000DC088E1E8
:103220000FB6F89480936000109260000FBEA895CE
:10323000109201081092000881E0089580E008953E
:10324000FC0191818081813A31F4913089F080E0F4
:10325000933089F40DC0813269F49B3021F482816E
:103260008093200105C09A3029F482818093210146
:1032700081E0089580E00895EF92FF920F931F93ED
:103280008C01E62EDC01ED91FC910480F581E02DAE
:103290000995F82ED801ED91FC910680F781E02D7B
:1032A000C8016E2D09958F2D90E01F910F91FF9011
:1032B000EF90089510922F02109233021092320272
:1032C00086E891E090933102809330020895EF9266
:1032D000FF920F931F93DF93CF930F92CDB7DEB77B
:1032E00089838B017A0184E0BE016F5F7F4F41E0EB
:1032F00050E00E94A41284E4B801A7010E94A41225
:103300000F90CF91DF911F910F91FF90EF90089553
:1033100082E048E050E00E9467190895FC0116829F
:103320001782108611861286138614823496BF0186
:103330000E9488190895DC01683810F0685829C087
:10334000E62FF0E067FF13C0E058F04081E090E026
:1033500002C0880F991FEA95E2F7809514962C9188
:103360001497282314962C93149760E012C0E75703
:10337000F74F6491662319F420E030E01DC067FF29
:1033800008C014968C9114978D7F14968C93149783
:103390006F77FD0190E0662321F08681861709F49E
:1033A00016829F5F31969630B1F7CD011496BD011C
:1033B0000E94881921E030E0C9010895CF93DF937E
:1033C000DC01683810F0685825C0E62FF0E067FF90
:1033D00012C0E058F04081E090E002C0880F991FD1
:1033E000EA95E2F714962C911497282B14962C93B7
:1033F000149760E00FC0E757F74F64916623D9F147
:1034000067FF08C014968C911497826014968C9371
:1034100014976F7716968C9116978617A9F11796C1
:103420008C911797861781F118968C9118978617AB
:1034300059F119968C911997861731F11A968C913A
:103440001A97861709F11B968C911B978617E1F046
:10345000ED01E0E0F0E09E2F8E81882321F4EA0F59
:10346000FB1F668306C09F5F31962196E630F1050B
:1034700091F7963049F481E090E013969C938E93F7
:10348000129720E030E007C0CD011496BD010E94E4
:10349000881921E030E0C901DF91CF91089580E8DB
:1034A0006BE078E045E650E00E947A110895FC0157
:1034B00080818F5F808380E860E778E049E150E0B9
:1034C0000E947A110895629FD001739FF001829F3C
:1034D000E00DF11D649FE00DF11D929FF00D839FA3
:1034E000F00D749FF00D659FF00D9927729FB00D40
:1034F000E11DF91F639FB00DE11DF91FBD01CF0153
:103500001124089597FB092E07260AD077FD04D0D1
:103510000CD006D000201AF4709561957F4F089565
:10352000F6F7909581959F4F0895AA1BBB1B51E11B
:1035300007C0AA1FBB1FA617B70710F0A61BB70B23
:10354000881F991F5A95A9F780959095BC01CD01C8
:103550000895EE0FFF1F0590F491E02D0994F89463
:02356000FFCF9B
:103562004465677265657320696E2043203A0A20BC
:10357200000180004002000000E1000000000000A5
:10358200010100000000DE085710720A6B06C70A2C
:10359200450B1707DE0BC30BA60C41090000000008
:1035A200DE08571056106B066B0787071707A6072A
:1035B200DB074009410900000000DE085710720ACB
:1035C2006B06C70A450B1707DE0BC30BA60C410996
:1035D200000000006B1857101A1836182618931896
:1035E2009718000000003C195710DE199B198E191C
:00000001FF
